{
  "_format": "hh-sol-artifact-1",
  "contractName": "mintContractParent",
  "sourceName": "contracts/mintContractParent.sol",
  "abi": [
    {
      "anonymous": false,
      "inputs": [
        {
          "indexed": true,
          "internalType": "address",
          "name": "previousOwner",
          "type": "address"
        },
        {
          "indexed": true,
          "internalType": "address",
          "name": "newOwner",
          "type": "address"
        }
      ],
      "name": "OwnershipTransferred",
      "type": "event"
    },
    {
      "anonymous": false,
      "inputs": [
        {
          "indexed": false,
          "internalType": "address",
          "name": "",
          "type": "address"
        },
        {
          "indexed": false,
          "internalType": "address",
          "name": "",
          "type": "address"
        }
      ],
      "name": "TokenCreated",
      "type": "event"
    },
    {
      "anonymous": false,
      "inputs": [
        {
          "indexed": false,
          "internalType": "address",
          "name": "",
          "type": "address"
        },
        {
          "indexed": false,
          "internalType": "address",
          "name": "",
          "type": "address"
        },
        {
          "indexed": false,
          "internalType": "address",
          "name": "",
          "type": "address"
        },
        {
          "indexed": false,
          "internalType": "uint256",
          "name": "",
          "type": "uint256"
        }
      ],
      "name": "TokenTransfered",
      "type": "event"
    },
    {
      "inputs": [
        {
          "internalType": "address",
          "name": "mintor",
          "type": "address"
        },
        {
          "internalType": "address",
          "name": "tokenAddress",
          "type": "address"
        },
        {
          "internalType": "uint256",
          "name": "start",
          "type": "uint256"
        },
        {
          "internalType": "uint256",
          "name": "end",
          "type": "uint256"
        },
        {
          "internalType": "uint256",
          "name": "price",
          "type": "uint256"
        }
      ],
      "name": "bulkMintERC721",
      "outputs": [],
      "stateMutability": "nonpayable",
      "type": "function"
    },
    {
      "inputs": [
        {
          "internalType": "uint256",
          "name": "tokenId",
          "type": "uint256"
        },
        {
          "internalType": "address",
          "name": "tokenAddress",
          "type": "address"
        }
      ],
      "name": "callPurchaseItem",
      "outputs": [],
      "stateMutability": "payable",
      "type": "function"
    },
    {
      "inputs": [
        {
          "internalType": "string",
          "name": "name",
          "type": "string"
        },
        {
          "internalType": "string",
          "name": "symbol",
          "type": "string"
        }
      ],
      "name": "createToken",
      "outputs": [],
      "stateMutability": "nonpayable",
      "type": "function"
    },
    {
      "inputs": [
        {
          "internalType": "address",
          "name": "tokenContractAddress",
          "type": "address"
        }
      ],
      "name": "getAllTokenId",
      "outputs": [
        {
          "internalType": "uint256[]",
          "name": "",
          "type": "uint256[]"
        }
      ],
      "stateMutability": "view",
      "type": "function"
    },
    {
      "inputs": [],
      "name": "getCountValue",
      "outputs": [
        {
          "internalType": "uint256",
          "name": "",
          "type": "uint256"
        }
      ],
      "stateMutability": "view",
      "type": "function"
    },
    {
      "inputs": [],
      "name": "owner",
      "outputs": [
        {
          "internalType": "address",
          "name": "",
          "type": "address"
        }
      ],
      "stateMutability": "view",
      "type": "function"
    },
    {
      "inputs": [],
      "name": "renounceOwnership",
      "outputs": [],
      "stateMutability": "nonpayable",
      "type": "function"
    },
    {
      "inputs": [
        {
          "internalType": "address",
          "name": "newOwner",
          "type": "address"
        }
      ],
      "name": "transferOwnership",
      "outputs": [],
      "stateMutability": "nonpayable",
      "type": "function"
    },
    {
      "inputs": [
        {
          "internalType": "address",
          "name": "from",
          "type": "address"
        },
        {
          "internalType": "address payable",
          "name": "to",
          "type": "address"
        },
        {
          "internalType": "address",
          "name": "token",
          "type": "address"
        },
        {
          "internalType": "uint256",
          "name": "amount",
          "type": "uint256"
        }
      ],
      "name": "transferToken",
      "outputs": [],
      "stateMutability": "nonpayable",
      "type": "function"
    }
  ],
  "bytecode": "0x608060405234801561001057600080fd5b5061002d61002261003260201b60201c565b61003a60201b60201c565b6100fe565b600033905090565b60008060009054906101000a900473ffffffffffffffffffffffffffffffffffffffff169050816000806101000a81548173ffffffffffffffffffffffffffffffffffffffff021916908373ffffffffffffffffffffffffffffffffffffffff1602179055508173ffffffffffffffffffffffffffffffffffffffff168173ffffffffffffffffffffffffffffffffffffffff167f8be0079c531659141344cd1fd0a4f28419497f9722a3daafe3b4186f6b6457e060405160405180910390a35050565b614b438061010d6000396000f3fe608060405260043610620000925760003560e01c80638ef47da311620000615780638ef47da3146200013d5780639d0df75d14620001815780639e79fbf714620001af578063ee2729e514620001df578063f2fde38b14620001ff5762000092565b80632c54de4f14620000975780632f2f2d5614620000c5578063715018a614620000f35780638da5cb5b146200010d575b600080fd5b348015620000a457600080fd5b50620000c36004803603810190620000bd9190620009bc565b6200022d565b005b348015620000d257600080fd5b50620000f16004803603810190620000eb919062000aaa565b620002e7565b005b3480156200010057600080fd5b506200010b62000366565b005b3480156200011a57600080fd5b50620001256200037e565b60405162000134919062000cf2565b60405180910390f35b3480156200014a57600080fd5b5062000169600480360381019062000163919062000990565b620003a7565b60405162000178919062000e03565b60405180910390f35b3480156200018e57600080fd5b50620001ad6004803603810190620001a7919062000a28565b62000517565b005b348015620001bc57600080fd5b50620001c76200065b565b604051620001d6919062000ea6565b60405180910390f35b620001fd6004803603810190620001f7919062000b49565b62000665565b005b3480156200020c57600080fd5b506200022b600480360381019062000225919062000990565b620006d8565b005b8173ffffffffffffffffffffffffffffffffffffffff166368155ec1858585856040518563ffffffff1660e01b81526004016200026e949392919062000d3c565b600060405180830381600087803b1580156200028957600080fd5b505af11580156200029e573d6000803e3d6000fd5b505050507fa7814aaf178d6c8e61b2703f3dc1b8328dd6c99cbb405bf8f1bb0cb1bbb051a584848484604051620002d9949392919062000d89565b60405180910390a150505050565b60008282604051620002f990620008b4565b6200030692919062000e27565b604051809103906000f08015801562000323573d6000803e3d6000fd5b5090507fd5f9bdf12adf29dab0248c349842c3822d53ae2bb4f36352f301630d018c813933826040516200035992919062000d0f565b60405180910390a1505050565b6200037062000763565b6200037c6000620007e8565b565b60008060009054906101000a900473ffffffffffffffffffffffffffffffffffffffff16905090565b6060600060015467ffffffffffffffff811115620003ee577f4e487b7100000000000000000000000000000000000000000000000000000000600052604160045260246000fd5b6040519080825280602002602001820160405280156200041d5781602001602082028036833780820191505090505b50905060005b6001548110156200050d57600260008573ffffffffffffffffffffffffffffffffffffffff1673ffffffffffffffffffffffffffffffffffffffff1681526020019081526020016000208181548110620004a6577f4e487b7100000000000000000000000000000000000000000000000000000000600052603260045260246000fd5b9060005260206000200154828281518110620004eb577f4e487b7100000000000000000000000000000000000000000000000000000000600052603260045260246000fd5b6020026020010181815250508080620005049062001080565b91505062000423565b5080915050919050565b6000808490505b838110156200064b5760008673ffffffffffffffffffffffffffffffffffffffff1663a144819489866040518363ffffffff1660e01b81526004016200056692919062000dd6565b602060405180830381600087803b1580156200058157600080fd5b505af115801562000596573d6000803e3d6000fd5b505050506040513d601f19601f82011682018060405250810190620005bc919062000b1d565b9050600260008873ffffffffffffffffffffffffffffffffffffffff1673ffffffffffffffffffffffffffffffffffffffff1681526020019081526020016000208190806001815401808255809150506001900390600052602060002001600090919091909150558280620006319062001080565b935050508080620006429062001080565b9150506200051e565b5080600181905550505050505050565b6000600154905090565b8073ffffffffffffffffffffffffffffffffffffffff1663d38ea5bf836040518263ffffffff1660e01b8152600401620006a0919062000ea6565b600060405180830381600087803b158015620006bb57600080fd5b505af1158015620006d0573d6000803e3d6000fd5b505050505050565b620006e262000763565b600073ffffffffffffffffffffffffffffffffffffffff168173ffffffffffffffffffffffffffffffffffffffff16141562000755576040517f08c379a00000000000000000000000000000000000000000000000000000000081526004016200074c9062000e62565b60405180910390fd5b6200076081620007e8565b50565b6200076d620008ac565b73ffffffffffffffffffffffffffffffffffffffff166200078d6200037e565b73ffffffffffffffffffffffffffffffffffffffff1614620007e6576040517f08c379a0000000000000000000000000000000000000000000000000000000008152600401620007dd9062000e84565b60405180910390fd5b565b60008060009054906101000a900473ffffffffffffffffffffffffffffffffffffffff169050816000806101000a81548173ffffffffffffffffffffffffffffffffffffffff021916908373ffffffffffffffffffffffffffffffffffffffff1602179055508173ffffffffffffffffffffffffffffffffffffffff168173ffffffffffffffffffffffffffffffffffffffff167f8be0079c531659141344cd1fd0a4f28419497f9722a3daafe3b4186f6b6457e060405160405180910390a35050565b600033905090565b61390a806200120483390190565b6000620008d9620008d38462000eec565b62000ec3565b905082815260208101848484011115620008f257600080fd5b620008ff84828562001005565b509392505050565b6000813590506200091881620011b5565b92915050565b6000813590506200092f81620011cf565b92915050565b600082601f8301126200094757600080fd5b813562000959848260208601620008c2565b91505092915050565b6000813590506200097381620011e9565b92915050565b6000815190506200098a81620011e9565b92915050565b600060208284031215620009a357600080fd5b6000620009b38482850162000907565b91505092915050565b60008060008060808587031215620009d357600080fd5b6000620009e38782880162000907565b9450506020620009f6878288016200091e565b935050604062000a098782880162000907565b925050606062000a1c8782880162000962565b91505092959194509250565b600080600080600060a0868803121562000a4157600080fd5b600062000a518882890162000907565b955050602062000a648882890162000907565b945050604062000a778882890162000962565b935050606062000a8a8882890162000962565b925050608062000a9d8882890162000962565b9150509295509295909350565b6000806040838503121562000abe57600080fd5b600083013567ffffffffffffffff81111562000ad957600080fd5b62000ae78582860162000935565b925050602083013567ffffffffffffffff81111562000b0557600080fd5b62000b138582860162000935565b9150509250929050565b60006020828403121562000b3057600080fd5b600062000b408482850162000979565b91505092915050565b6000806040838503121562000b5d57600080fd5b600062000b6d8582860162000962565b925050602062000b808582860162000907565b9150509250929050565b600062000b98838362000cd0565b60208301905092915050565b62000baf8162000fc9565b82525050565b62000bc08162000f8b565b82525050565b62000bd18162000f77565b82525050565b600062000be48262000f32565b62000bf0818562000f55565b935062000bfd8362000f22565b8060005b8381101562000c3457815162000c18888262000b8a565b975062000c258362000f48565b92505060018101905062000c01565b5085935050505092915050565b600062000c4e8262000f3d565b62000c5a818562000f66565b935062000c6c81856020860162001014565b62000c77816200112c565b840191505092915050565b600062000c9160268362000f66565b915062000c9e826200113d565b604082019050919050565b600062000cb860208362000f66565b915062000cc5826200118c565b602082019050919050565b62000cdb8162000fbf565b82525050565b62000cec8162000fbf565b82525050565b600060208201905062000d09600083018462000bc6565b92915050565b600060408201905062000d26600083018562000bc6565b62000d35602083018462000bc6565b9392505050565b600060808201905062000d53600083018762000bc6565b62000d62602083018662000bb5565b62000d71604083018562000bc6565b62000d80606083018462000ce1565b95945050505050565b600060808201905062000da0600083018762000bc6565b62000daf602083018662000ba4565b62000dbe604083018562000bc6565b62000dcd606083018462000ce1565b95945050505050565b600060408201905062000ded600083018562000bc6565b62000dfc602083018462000ce1565b9392505050565b6000602082019050818103600083015262000e1f818462000bd7565b905092915050565b6000604082019050818103600083015262000e43818562000c41565b9050818103602083015262000e59818462000c41565b90509392505050565b6000602082019050818103600083015262000e7d8162000c82565b9050919050565b6000602082019050818103600083015262000e9f8162000ca9565b9050919050565b600060208201905062000ebd600083018462000ce1565b92915050565b600062000ecf62000ee2565b905062000edd82826200104a565b919050565b6000604051905090565b600067ffffffffffffffff82111562000f0a5762000f09620010fd565b5b62000f15826200112c565b9050602081019050919050565b6000819050602082019050919050565b600081519050919050565b600081519050919050565b6000602082019050919050565b600082825260208201905092915050565b600082825260208201905092915050565b600062000f848262000f9f565b9050919050565b600062000f988262000f9f565b9050919050565b600073ffffffffffffffffffffffffffffffffffffffff82169050919050565b6000819050919050565b600062000fd68262000fdd565b9050919050565b600062000fea8262000ff1565b9050919050565b600062000ffe8262000f9f565b9050919050565b82818337600083830152505050565b60005b838110156200103457808201518184015260208101905062001017565b8381111562001044576000848401525b50505050565b62001055826200112c565b810181811067ffffffffffffffff82111715620010775762001076620010fd565b5b80604052505050565b60006200108d8262000fbf565b91507fffffffffffffffffffffffffffffffffffffffffffffffffffffffffffffffff821415620010c357620010c2620010ce565b5b600182019050919050565b7f4e487b7100000000000000000000000000000000000000000000000000000000600052601160045260246000fd5b7f4e487b7100000000000000000000000000000000000000000000000000000000600052604160045260246000fd5b6000601f19601f8301169050919050565b7f4f776e61626c653a206e6577206f776e657220697320746865207a65726f206160008201527f6464726573730000000000000000000000000000000000000000000000000000602082015250565b7f4f776e61626c653a2063616c6c6572206973206e6f7420746865206f776e6572600082015250565b620011c08162000f77565b8114620011cc57600080fd5b50565b620011da8162000f8b565b8114620011e657600080fd5b50565b620011f48162000fbf565b81146200120057600080fd5b5056fe608060405260026007553480156200001657600080fd5b506040516200390a3803806200390a83398181016040528101906200003c91906200019c565b81818160009080519060200190620000569291906200007a565b5080600190805190602001906200006f9291906200007a565b50505050506200037f565b8280546200008890620002a4565b90600052602060002090601f016020900481019282620000ac5760008555620000f8565b82601f10620000c757805160ff1916838001178555620000f8565b82800160010185558215620000f8579182015b82811115620000f7578251825591602001919060010190620000da565b5b5090506200010791906200010b565b5090565b5b80821115620001265760008160009055506001016200010c565b5090565b6000620001416200013b8462000238565b6200020f565b9050828152602081018484840111156200015a57600080fd5b620001678482856200026e565b509392505050565b600082601f8301126200018157600080fd5b8151620001938482602086016200012a565b91505092915050565b60008060408385031215620001b057600080fd5b600083015167ffffffffffffffff811115620001cb57600080fd5b620001d9858286016200016f565b925050602083015167ffffffffffffffff811115620001f757600080fd5b62000205858286016200016f565b9150509250929050565b60006200021b6200022e565b9050620002298282620002da565b919050565b6000604051905090565b600067ffffffffffffffff8211156200025657620002556200033f565b5b62000261826200036e565b9050602081019050919050565b60005b838110156200028e57808201518184015260208101905062000271565b838111156200029e576000848401525b50505050565b60006002820490506001821680620002bd57607f821691505b60208210811415620002d457620002d362000310565b5b50919050565b620002e5826200036e565b810181811067ffffffffffffffff821117156200030757620003066200033f565b5b80604052505050565b7f4e487b7100000000000000000000000000000000000000000000000000000000600052602260045260246000fd5b7f4e487b7100000000000000000000000000000000000000000000000000000000600052604160045260246000fd5b6000601f19601f8301169050919050565b61357b806200038f6000396000f3fe60806040526004361061011f5760003560e01c806370a08231116100a0578063b88d4fde11610064578063b88d4fde14610410578063c87b56dd14610439578063ca7dd37514610476578063d38ea5bf146104b3578063e985e9c5146104cf5761011f565b806370a08231146103175780637fd6f15c1461035457806395d89b411461037f578063a1448194146103aa578063a22cb465146103e75761011f565b806342842e0e116100e757806342842e0e1461021b57806351f28e14146102445780636352211e1461028657806365e17c9d146102c357806368155ec1146102ee5761011f565b806301ffc9a71461012457806306fdde0314610161578063081812fc1461018c578063095ea7b3146101c957806323b872dd146101f2575b600080fd5b34801561013057600080fd5b5061014b600480360381019061014691906123cc565b61050c565b6040516101589190612934565b60405180910390f35b34801561016d57600080fd5b506101766105ee565b604051610183919061294f565b60405180910390f35b34801561019857600080fd5b506101b360048036038101906101ae919061241e565b610680565b6040516101c091906127ac565b60405180910390f35b3480156101d557600080fd5b506101f060048036038101906101eb9190612390565b610705565b005b3480156101fe57600080fd5b506102196004803603810190610214919061228a565b61081d565b005b34801561022757600080fd5b50610242600480360381019061023d919061228a565b610876565b005b34801561025057600080fd5b5061026b6004803603810190610266919061241e565b610896565b60405161027d969594939291906128d3565b60405180910390f35b34801561029257600080fd5b506102ad60048036038101906102a8919061241e565b61093f565b6040516102ba91906127ac565b60405180910390f35b3480156102cf57600080fd5b506102d86109f1565b6040516102e591906127c7565b60405180910390f35b3480156102fa57600080fd5b5061031560048036038101906103109190612227565b610a17565b005b34801561032357600080fd5b5061033e600480360381019061033991906121c2565b610b3a565b60405161034b9190612b91565b60405180910390f35b34801561036057600080fd5b50610369610bf2565b6040516103769190612b91565b60405180910390f35b34801561038b57600080fd5b50610394610bf8565b6040516103a1919061294f565b60405180910390f35b3480156103b657600080fd5b506103d160048036038101906103cc9190612390565b610c8a565b6040516103de9190612b91565b60405180910390f35b3480156103f357600080fd5b5061040e60048036038101906104099190612354565b610e9d565b005b34801561041c57600080fd5b50610437600480360381019061043291906122d9565b610eb3565b005b34801561044557600080fd5b50610460600480360381019061045b919061241e565b610f15565b60405161046d919061294f565b60405180910390f35b34801561048257600080fd5b5061049d6004803603810190610498919061241e565b610fbc565b6040516104aa9190612b91565b60405180910390f35b6104cd60048036038101906104c8919061241e565b611001565b005b3480156104db57600080fd5b506104f660048036038101906104f191906121eb565b6113a4565b6040516105039190612934565b60405180910390f35b60007f80ac58cd000000000000000000000000000000000000000000000000000000007bffffffffffffffffffffffffffffffffffffffffffffffffffffffff1916827bffffffffffffffffffffffffffffffffffffffffffffffffffffffff191614806105d757507f5b5e139f000000000000000000000000000000000000000000000000000000007bffffffffffffffffffffffffffffffffffffffffffffffffffffffff1916827bffffffffffffffffffffffffffffffffffffffffffffffffffffffff1916145b806105e757506105e682611438565b5b9050919050565b6060600080546105fd90612e81565b80601f016020809104026020016040519081016040528092919081815260200182805461062990612e81565b80156106765780601f1061064b57610100808354040283529160200191610676565b820191906000526020600020905b81548152906001019060200180831161065957829003601f168201915b5050505050905090565b600061068b826114a2565b6106ca576040517f08c379a00000000000000000000000000000000000000000000000000000000081526004016106c190612b11565b60405180910390fd5b6004600083815260200190815260200160002060009054906101000a900473ffffffffffffffffffffffffffffffffffffffff169050919050565b60006107108261093f565b90508073ffffffffffffffffffffffffffffffffffffffff168373ffffffffffffffffffffffffffffffffffffffff161415610781576040517f08c379a000000000000000000000000000000000000000000000000000000000815260040161077890612b51565b60405180910390fd5b8073ffffffffffffffffffffffffffffffffffffffff166107a061150e565b73ffffffffffffffffffffffffffffffffffffffff1614806107cf57506107ce816107c961150e565b6113a4565b5b61080e576040517f08c379a000000000000000000000000000000000000000000000000000000000815260040161080590612a71565b60405180910390fd5b6108188383611516565b505050565b61082783826115cf565b610866576040517f08c379a000000000000000000000000000000000000000000000000000000000815260040161085d90612b71565b60405180910390fd5b6108718383836116ad565b505050565b61089183838360405180602001604052806000815250610eb3565b505050565b60096020528060005260406000206000915090508060000160009054906101000a900473ffffffffffffffffffffffffffffffffffffffff16908060010154908060020160009054906101000a900473ffffffffffffffffffffffffffffffffffffffff16908060030160009054906101000a900473ffffffffffffffffffffffffffffffffffffffff16908060040154908060050160009054906101000a900460ff16905086565b6000806002600084815260200190815260200160002060009054906101000a900473ffffffffffffffffffffffffffffffffffffffff169050600073ffffffffffffffffffffffffffffffffffffffff168173ffffffffffffffffffffffffffffffffffffffff1614156109e8576040517f08c379a00000000000000000000000000000000000000000000000000000000081526004016109df90612ab1565b60405180910390fd5b80915050919050565b600860009054906101000a900473ffffffffffffffffffffffffffffffffffffffff1681565b600073ffffffffffffffffffffffffffffffffffffffff168273ffffffffffffffffffffffffffffffffffffffff1614610abf578173ffffffffffffffffffffffffffffffffffffffff166323b872dd8585846040518463ffffffff1660e01b8152600401610a8893929190612819565b600060405180830381600087803b158015610aa257600080fd5b505af1158015610ab6573d6000803e3d6000fd5b50505050610b34565b8273ffffffffffffffffffffffffffffffffffffffff166108fc829081150290604051600060405180830381858888f19350505050610b33576040517f08c379a0000000000000000000000000000000000000000000000000000000008152600401610b2a90612ad1565b60405180910390fd5b5b50505050565b60008073ffffffffffffffffffffffffffffffffffffffff168273ffffffffffffffffffffffffffffffffffffffff161415610bab576040517f08c379a0000000000000000000000000000000000000000000000000000000008152600401610ba290612a91565b60405180910390fd5b600360008373ffffffffffffffffffffffffffffffffffffffff1673ffffffffffffffffffffffffffffffffffffffff168152602001908152602001600020549050919050565b60075481565b606060018054610c0790612e81565b80601f0160208091040260200160405190810160405280929190818152602001828054610c3390612e81565b8015610c805780601f10610c5557610100808354040283529160200191610c80565b820191906000526020600020905b815481529060010190602001808311610c6357829003601f168201915b5050505050905090565b600080610c976006611914565b9050610ca38482611922565b6040518060c001604052803073ffffffffffffffffffffffffffffffffffffffff1681526020018281526020018573ffffffffffffffffffffffffffffffffffffffff168152602001600073ffffffffffffffffffffffffffffffffffffffff168152602001848152602001600015158152506009600083815260200190815260200160002060008201518160000160006101000a81548173ffffffffffffffffffffffffffffffffffffffff021916908373ffffffffffffffffffffffffffffffffffffffff1602179055506020820151816001015560408201518160020160006101000a81548173ffffffffffffffffffffffffffffffffffffffff021916908373ffffffffffffffffffffffffffffffffffffffff16021790555060608201518160030160006101000a81548173ffffffffffffffffffffffffffffffffffffffff021916908373ffffffffffffffffffffffffffffffffffffffff1602179055506080820151816004015560a08201518160050160006101000a81548160ff021916908315150217905550905050610e3f6006611940565b803073ffffffffffffffffffffffffffffffffffffffff167f4e87d65c4baed28b185aa1f2f583850f4140e7ee01ee27c4e06f622d085b1bfc86600087604051610e8b93929190612850565b60405180910390a38091505092915050565b610eaf610ea861150e565b8383611956565b5050565b610ec4610ebe61150e565b836115cf565b610f03576040517f08c379a0000000000000000000000000000000000000000000000000000000008152600401610efa90612b71565b60405180910390fd5b610f0f84848484611ac3565b50505050565b6060610f20826114a2565b610f5f576040517f08c379a0000000000000000000000000000000000000000000000000000000008152600401610f5690612b31565b60405180910390fd5b6000610f69611b1f565b90506000815111610f895760405180602001604052806000815250610fb4565b80610f9384611b36565b604051602001610fa4929190612788565b6040516020818303038152906040525b915050919050565b600060646007546064610fcf9190612c6e565b6009600085815260200190815260200160002060040154610ff09190612cf5565b610ffa9190612cc4565b9050919050565b600061100c82610fbc565b90506000600960008481526020019081526020016000206040518060c00160405290816000820160009054906101000a900473ffffffffffffffffffffffffffffffffffffffff1673ffffffffffffffffffffffffffffffffffffffff1673ffffffffffffffffffffffffffffffffffffffff168152602001600182015481526020016002820160009054906101000a900473ffffffffffffffffffffffffffffffffffffffff1673ffffffffffffffffffffffffffffffffffffffff1673ffffffffffffffffffffffffffffffffffffffff1681526020016003820160009054906101000a900473ffffffffffffffffffffffffffffffffffffffff1673ffffffffffffffffffffffffffffffffffffffff1673ffffffffffffffffffffffffffffffffffffffff168152602001600482015481526020016005820160009054906101000a900460ff1615151515815250509050813410156111a4576040517f08c379a000000000000000000000000000000000000000000000000000000000815260040161119b90612971565b60405180910390fd5b8060a00151156111e9576040517f08c379a00000000000000000000000000000000000000000000000000000000081526004016111e090612991565b60405180910390fd5b806040015173ffffffffffffffffffffffffffffffffffffffff166108fc82608001519081150290604051600060405180830381858888f19350505050158015611237573d6000803e3d6000fd5b5060018160a0019015159081151581525050806000015173ffffffffffffffffffffffffffffffffffffffff166323b872dd826040015133866040518463ffffffff1660e01b815260040161128e939291906127e2565b600060405180830381600087803b1580156112a857600080fd5b505af11580156112bc573d6000803e3d6000fd5b50505050336009600085815260200190815260200160002060030160006101000a81548173ffffffffffffffffffffffffffffffffffffffff021916908373ffffffffffffffffffffffffffffffffffffffff1602179055503373ffffffffffffffffffffffffffffffffffffffff16816040015173ffffffffffffffffffffffffffffffffffffffff163073ffffffffffffffffffffffffffffffffffffffff167feb63d138ac814e90b4d90e51c5d97954429da77f7266e9aa0bf33bd9863f131d84602001518560800151604051611397929190612bac565b60405180910390a4505050565b6000600560008473ffffffffffffffffffffffffffffffffffffffff1673ffffffffffffffffffffffffffffffffffffffff16815260200190815260200160002060008373ffffffffffffffffffffffffffffffffffffffff1673ffffffffffffffffffffffffffffffffffffffff16815260200190815260200160002060009054906101000a900460ff16905092915050565b60007f01ffc9a7000000000000000000000000000000000000000000000000000000007bffffffffffffffffffffffffffffffffffffffffffffffffffffffff1916827bffffffffffffffffffffffffffffffffffffffffffffffffffffffff1916149050919050565b60008073ffffffffffffffffffffffffffffffffffffffff166002600084815260200190815260200160002060009054906101000a900473ffffffffffffffffffffffffffffffffffffffff1673ffffffffffffffffffffffffffffffffffffffff1614159050919050565b600033905090565b816004600083815260200190815260200160002060006101000a81548173ffffffffffffffffffffffffffffffffffffffff021916908373ffffffffffffffffffffffffffffffffffffffff160217905550808273ffffffffffffffffffffffffffffffffffffffff166115898361093f565b73ffffffffffffffffffffffffffffffffffffffff167f8c5be1e5ebec7d5bd14f71427d1e84f3dd0314c0f7b2291e5b200ac8c7c3b92560405160405180910390a45050565b60006115da826114a2565b611619576040517f08c379a000000000000000000000000000000000000000000000000000000000815260040161161090612a51565b60405180910390fd5b60006116248361093f565b90508073ffffffffffffffffffffffffffffffffffffffff168473ffffffffffffffffffffffffffffffffffffffff16148061169357508373ffffffffffffffffffffffffffffffffffffffff1661167b84610680565b73ffffffffffffffffffffffffffffffffffffffff16145b806116a457506116a381856113a4565b5b91505092915050565b8273ffffffffffffffffffffffffffffffffffffffff166116cd8261093f565b73ffffffffffffffffffffffffffffffffffffffff1614611723576040517f08c379a000000000000000000000000000000000000000000000000000000000815260040161171a906129d1565b60405180910390fd5b600073ffffffffffffffffffffffffffffffffffffffff168273ffffffffffffffffffffffffffffffffffffffff161415611793576040517f08c379a000000000000000000000000000000000000000000000000000000000815260040161178a90612a11565b60405180910390fd5b61179e838383611ce3565b6117a9600082611516565b6001600360008573ffffffffffffffffffffffffffffffffffffffff1673ffffffffffffffffffffffffffffffffffffffff16815260200190815260200160002060008282546117f99190612d4f565b925050819055506001600360008473ffffffffffffffffffffffffffffffffffffffff1673ffffffffffffffffffffffffffffffffffffffff16815260200190815260200160002060008282546118509190612c6e565b92505081905550816002600083815260200190815260200160002060006101000a81548173ffffffffffffffffffffffffffffffffffffffff021916908373ffffffffffffffffffffffffffffffffffffffff160217905550808273ffffffffffffffffffffffffffffffffffffffff168473ffffffffffffffffffffffffffffffffffffffff167fddf252ad1be2c89b69c2b068fc378daa952ba7f163c4a11628f55a4df523b3ef60405160405180910390a461190f838383611ce8565b505050565b600081600001549050919050565b61193c828260405180602001604052806000815250611ced565b5050565b6001816000016000828254019250508190555050565b8173ffffffffffffffffffffffffffffffffffffffff168373ffffffffffffffffffffffffffffffffffffffff1614156119c5576040517f08c379a00000000000000000000000000000000000000000000000000000000081526004016119bc90612a31565b60405180910390fd5b80600560008573ffffffffffffffffffffffffffffffffffffffff1673ffffffffffffffffffffffffffffffffffffffff16815260200190815260200160002060008473ffffffffffffffffffffffffffffffffffffffff1673ffffffffffffffffffffffffffffffffffffffff16815260200190815260200160002060006101000a81548160ff0219169083151502179055508173ffffffffffffffffffffffffffffffffffffffff168373ffffffffffffffffffffffffffffffffffffffff167f17307eab39ab6107e8899845ad3d59bd9653f200f220920489ca2b5937696c3183604051611ab69190612934565b60405180910390a3505050565b611ace8484846116ad565b611ada84848484611d48565b611b19576040517f08c379a0000000000000000000000000000000000000000000000000000000008152600401611b10906129b1565b60405180910390fd5b50505050565b606060405180602001604052806000815250905090565b60606000821415611b7e576040518060400160405280600181526020017f30000000000000000000000000000000000000000000000000000000000000008152509050611cde565b600082905060005b60008214611bb0578080611b9990612ee4565b915050600a82611ba99190612cc4565b9150611b86565b60008167ffffffffffffffff811115611bf2577f4e487b7100000000000000000000000000000000000000000000000000000000600052604160045260246000fd5b6040519080825280601f01601f191660200182016040528015611c245781602001600182028036833780820191505090505b5090505b60008514611cd757600182611c3d9190612d4f565b9150600a85611c4c9190612f2d565b6030611c589190612c6e565b60f81b818381518110611c94577f4e487b7100000000000000000000000000000000000000000000000000000000600052603260045260246000fd5b60200101907effffffffffffffffffffffffffffffffffffffffffffffffffffffffffffff1916908160001a905350600a85611cd09190612cc4565b9450611c28565b8093505050505b919050565b505050565b505050565b611cf78383611edf565b611d046000848484611d48565b611d43576040517f08c379a0000000000000000000000000000000000000000000000000000000008152600401611d3a906129b1565b60405180910390fd5b505050565b6000611d698473ffffffffffffffffffffffffffffffffffffffff166120b9565b15611ed2578373ffffffffffffffffffffffffffffffffffffffff1663150b7a02611d9261150e565b8786866040518563ffffffff1660e01b8152600401611db49493929190612887565b602060405180830381600087803b158015611dce57600080fd5b505af1925050508015611dff57506040513d601f19601f82011682018060405250810190611dfc91906123f5565b60015b611e82573d8060008114611e2f576040519150601f19603f3d011682016040523d82523d6000602084013e611e34565b606091505b50600081511415611e7a576040517f08c379a0000000000000000000000000000000000000000000000000000000008152600401611e71906129b1565b60405180910390fd5b805181602001fd5b63150b7a0260e01b7bffffffffffffffffffffffffffffffffffffffffffffffffffffffff1916817bffffffffffffffffffffffffffffffffffffffffffffffffffffffff191614915050611ed7565b600190505b949350505050565b600073ffffffffffffffffffffffffffffffffffffffff168273ffffffffffffffffffffffffffffffffffffffff161415611f4f576040517f08c379a0000000000000000000000000000000000000000000000000000000008152600401611f4690612af1565b60405180910390fd5b611f58816114a2565b15611f98576040517f08c379a0000000000000000000000000000000000000000000000000000000008152600401611f8f906129f1565b60405180910390fd5b611fa460008383611ce3565b6001600360008473ffffffffffffffffffffffffffffffffffffffff1673ffffffffffffffffffffffffffffffffffffffff1681526020019081526020016000206000828254611ff49190612c6e565b92505081905550816002600083815260200190815260200160002060006101000a81548173ffffffffffffffffffffffffffffffffffffffff021916908373ffffffffffffffffffffffffffffffffffffffff160217905550808273ffffffffffffffffffffffffffffffffffffffff16600073ffffffffffffffffffffffffffffffffffffffff167fddf252ad1be2c89b69c2b068fc378daa952ba7f163c4a11628f55a4df523b3ef60405160405180910390a46120b560008383611ce8565b5050565b6000808273ffffffffffffffffffffffffffffffffffffffff163b119050919050565b60006120ef6120ea84612bfa565b612bd5565b90508281526020810184848401111561210757600080fd5b612112848285612e3f565b509392505050565b600081359050612129816134d2565b92915050565b60008135905061213e816134e9565b92915050565b60008135905061215381613500565b92915050565b60008135905061216881613517565b92915050565b60008151905061217d81613517565b92915050565b600082601f83011261219457600080fd5b81356121a48482602086016120dc565b91505092915050565b6000813590506121bc8161352e565b92915050565b6000602082840312156121d457600080fd5b60006121e28482850161211a565b91505092915050565b600080604083850312156121fe57600080fd5b600061220c8582860161211a565b925050602061221d8582860161211a565b9150509250929050565b6000806000806080858703121561223d57600080fd5b600061224b8782880161211a565b945050602061225c8782880161212f565b935050604061226d8782880161211a565b925050606061227e878288016121ad565b91505092959194509250565b60008060006060848603121561229f57600080fd5b60006122ad8682870161211a565b93505060206122be8682870161211a565b92505060406122cf868287016121ad565b9150509250925092565b600080600080608085870312156122ef57600080fd5b60006122fd8782880161211a565b945050602061230e8782880161211a565b935050604061231f878288016121ad565b925050606085013567ffffffffffffffff81111561233c57600080fd5b61234887828801612183565b91505092959194509250565b6000806040838503121561236757600080fd5b60006123758582860161211a565b925050602061238685828601612144565b9150509250929050565b600080604083850312156123a357600080fd5b60006123b18582860161211a565b92505060206123c2858286016121ad565b9150509250929050565b6000602082840312156123de57600080fd5b60006123ec84828501612159565b91505092915050565b60006020828403121561240757600080fd5b60006124158482850161216e565b91505092915050565b60006020828403121561243057600080fd5b600061243e848285016121ad565b91505092915050565b61245081612e09565b82525050565b61245f81612d95565b82525050565b61246e81612d83565b82525050565b61247d81612da7565b82525050565b600061248e82612c2b565b6124988185612c41565b93506124a8818560208601612e4e565b6124b18161301a565b840191505092915050565b60006124c782612c36565b6124d18185612c52565b93506124e1818560208601612e4e565b6124ea8161301a565b840191505092915050565b600061250082612c36565b61250a8185612c63565b935061251a818560208601612e4e565b80840191505092915050565b6000612533603383612c52565b915061253e8261302b565b604082019050919050565b6000612556601183612c52565b91506125618261307a565b602082019050919050565b6000612579603283612c52565b9150612584826130a3565b604082019050919050565b600061259c602583612c52565b91506125a7826130f2565b604082019050919050565b60006125bf601c83612c52565b91506125ca82613141565b602082019050919050565b60006125e2602483612c52565b91506125ed8261316a565b604082019050919050565b6000612605601983612c52565b9150612610826131b9565b602082019050919050565b6000612628602c83612c52565b9150612633826131e2565b604082019050919050565b600061264b603883612c52565b915061265682613231565b604082019050919050565b600061266e602a83612c52565b915061267982613280565b604082019050919050565b6000612691602983612c52565b915061269c826132cf565b604082019050919050565b60006126b4602283612c52565b91506126bf8261331e565b604082019050919050565b60006126d7602083612c52565b91506126e28261336d565b602082019050919050565b60006126fa602c83612c52565b915061270582613396565b604082019050919050565b600061271d602f83612c52565b9150612728826133e5565b604082019050919050565b6000612740602183612c52565b915061274b82613434565b604082019050919050565b6000612763603183612c52565b915061276e82613483565b604082019050919050565b61278281612dff565b82525050565b600061279482856124f5565b91506127a082846124f5565b91508190509392505050565b60006020820190506127c16000830184612465565b92915050565b60006020820190506127dc6000830184612456565b92915050565b60006060820190506127f76000830186612447565b6128046020830185612465565b6128116040830184612779565b949350505050565b600060608201905061282e6000830186612465565b61283b6020830185612447565b6128486040830184612779565b949350505050565b60006060820190506128656000830186612465565b6128726020830185612465565b61287f6040830184612779565b949350505050565b600060808201905061289c6000830187612465565b6128a96020830186612465565b6128b66040830185612779565b81810360608301526128c88184612483565b905095945050505050565b600060c0820190506128e86000830189612465565b6128f56020830188612779565b6129026040830187612456565b61290f6060830186612456565b61291c6080830185612779565b61292960a0830184612474565b979650505050505050565b60006020820190506129496000830184612474565b92915050565b6000602082019050818103600083015261296981846124bc565b905092915050565b6000602082019050818103600083015261298a81612526565b9050919050565b600060208201905081810360008301526129aa81612549565b9050919050565b600060208201905081810360008301526129ca8161256c565b9050919050565b600060208201905081810360008301526129ea8161258f565b9050919050565b60006020820190508181036000830152612a0a816125b2565b9050919050565b60006020820190508181036000830152612a2a816125d5565b9050919050565b60006020820190508181036000830152612a4a816125f8565b9050919050565b60006020820190508181036000830152612a6a8161261b565b9050919050565b60006020820190508181036000830152612a8a8161263e565b9050919050565b60006020820190508181036000830152612aaa81612661565b9050919050565b60006020820190508181036000830152612aca81612684565b9050919050565b60006020820190508181036000830152612aea816126a7565b9050919050565b60006020820190508181036000830152612b0a816126ca565b9050919050565b60006020820190508181036000830152612b2a816126ed565b9050919050565b60006020820190508181036000830152612b4a81612710565b9050919050565b60006020820190508181036000830152612b6a81612733565b9050919050565b60006020820190508181036000830152612b8a81612756565b9050919050565b6000602082019050612ba66000830184612779565b92915050565b6000604082019050612bc16000830185612779565b612bce6020830184612779565b9392505050565b6000612bdf612bf0565b9050612beb8282612eb3565b919050565b6000604051905090565b600067ffffffffffffffff821115612c1557612c14612feb565b5b612c1e8261301a565b9050602081019050919050565b600081519050919050565b600081519050919050565b600082825260208201905092915050565b600082825260208201905092915050565b600081905092915050565b6000612c7982612dff565b9150612c8483612dff565b9250827fffffffffffffffffffffffffffffffffffffffffffffffffffffffffffffffff03821115612cb957612cb8612f5e565b5b828201905092915050565b6000612ccf82612dff565b9150612cda83612dff565b925082612cea57612ce9612f8d565b5b828204905092915050565b6000612d0082612dff565b9150612d0b83612dff565b9250817fffffffffffffffffffffffffffffffffffffffffffffffffffffffffffffffff0483118215151615612d4457612d43612f5e565b5b828202905092915050565b6000612d5a82612dff565b9150612d6583612dff565b925082821015612d7857612d77612f5e565b5b828203905092915050565b6000612d8e82612ddf565b9050919050565b6000612da082612ddf565b9050919050565b60008115159050919050565b60007fffffffff0000000000000000000000000000000000000000000000000000000082169050919050565b600073ffffffffffffffffffffffffffffffffffffffff82169050919050565b6000819050919050565b6000612e1482612e1b565b9050919050565b6000612e2682612e2d565b9050919050565b6000612e3882612ddf565b9050919050565b82818337600083830152505050565b60005b83811015612e6c578082015181840152602081019050612e51565b83811115612e7b576000848401525b50505050565b60006002820490506001821680612e9957607f821691505b60208210811415612ead57612eac612fbc565b5b50919050565b612ebc8261301a565b810181811067ffffffffffffffff82111715612edb57612eda612feb565b5b80604052505050565b6000612eef82612dff565b91507fffffffffffffffffffffffffffffffffffffffffffffffffffffffffffffffff821415612f2257612f21612f5e565b5b600182019050919050565b6000612f3882612dff565b9150612f4383612dff565b925082612f5357612f52612f8d565b5b828206905092915050565b7f4e487b7100000000000000000000000000000000000000000000000000000000600052601160045260246000fd5b7f4e487b7100000000000000000000000000000000000000000000000000000000600052601260045260246000fd5b7f4e487b7100000000000000000000000000000000000000000000000000000000600052602260045260246000fd5b7f4e487b7100000000000000000000000000000000000000000000000000000000600052604160045260246000fd5b6000601f19601f8301169050919050565b7f6e6f7420656e6f756768206d6174696320746f20636f766572206974656d207060008201527f7269636520616e64206d61726b65742066656500000000000000000000000000602082015250565b7f6974656d20616c726561647920736f6c64000000000000000000000000000000600082015250565b7f4552433732313a207472616e7366657220746f206e6f6e20455243373231526560008201527f63656976657220696d706c656d656e7465720000000000000000000000000000602082015250565b7f4552433732313a207472616e736665722066726f6d20696e636f72726563742060008201527f6f776e6572000000000000000000000000000000000000000000000000000000602082015250565b7f4552433732313a20746f6b656e20616c7265616479206d696e74656400000000600082015250565b7f4552433732313a207472616e7366657220746f20746865207a65726f2061646460008201527f7265737300000000000000000000000000000000000000000000000000000000602082015250565b7f4552433732313a20617070726f766520746f2063616c6c657200000000000000600082015250565b7f4552433732313a206f70657261746f7220717565727920666f72206e6f6e657860008201527f697374656e7420746f6b656e0000000000000000000000000000000000000000602082015250565b7f4552433732313a20617070726f76652063616c6c6572206973206e6f74206f7760008201527f6e6572206e6f7220617070726f76656420666f7220616c6c0000000000000000602082015250565b7f4552433732313a2062616c616e636520717565727920666f7220746865207a6560008201527f726f206164647265737300000000000000000000000000000000000000000000602082015250565b7f4552433732313a206f776e657220717565727920666f72206e6f6e657869737460008201527f656e7420746f6b656e0000000000000000000000000000000000000000000000602082015250565b7f5472616e73666572206f662045544820746f207265636569766572206661696c60008201527f6564000000000000000000000000000000000000000000000000000000000000602082015250565b7f4552433732313a206d696e7420746f20746865207a65726f2061646472657373600082015250565b7f4552433732313a20617070726f76656420717565727920666f72206e6f6e657860008201527f697374656e7420746f6b656e0000000000000000000000000000000000000000602082015250565b7f4552433732314d657461646174613a2055524920717565727920666f72206e6f60008201527f6e6578697374656e7420746f6b656e0000000000000000000000000000000000602082015250565b7f4552433732313a20617070726f76616c20746f2063757272656e74206f776e6560008201527f7200000000000000000000000000000000000000000000000000000000000000602082015250565b7f4552433732313a207472616e736665722063616c6c6572206973206e6f74206f60008201527f776e6572206e6f7220617070726f766564000000000000000000000000000000602082015250565b6134db81612d83565b81146134e657600080fd5b50565b6134f281612d95565b81146134fd57600080fd5b50565b61350981612da7565b811461351457600080fd5b50565b61352081612db3565b811461352b57600080fd5b50565b61353781612dff565b811461354257600080fd5b5056fea2646970667358221220d0778855d52738b64e22627b1291c859828de5808ee7c4c82ee5e69e8a1bdae564736f6c63430008040033a26469706673582212209fd87198324ea99817d09afcb72080636470994c2d73fc8bf955b99715a6af3d64736f6c63430008040033",
  "linkReferences": {},
  "deployedLinkReferences": {}
}